:020000040800F2
:1000000000800020011D0008F11B0008F31B000800
:10001000F51B0008F71B0008F91B00080000000092
:10002000000000000000000000000000FB1B0008B2
:10003000FD1B000800000000FF1B0008011C000859
:10004000511D0008511D0008511D0008511D0008D8
:10005000511D0008511D0008511D0008511D0008C8
:10006000511D0008511D0008511D0008511D0008B8
:10007000511D0008511D0008511D0008511D0008A8
:10008000511D000800000000511D0008511D00080E
:10009000511D0008051C0008511D0008511D0008D5
:1000A000511D0008151C0008511D0008511D0008B5
:1000B0002D1C0008511D0008511D0008511D00088D
:1000C000511D0008511D0008511D0008511D000858
:1000D000511D0008511D00083D1C0008511D00085D
:1000E000511D0008511D0008511D0008511D000838
:1000F000511D0008511D0008511D0008000000009E
:1001000000000000511D000800000000511D000803
:10011000511D000800000000511D0008511D00087D
:10012000511D0008511D0008511D0008511D0008F7
:10013000511D00080000000000000000511D0008D3
:10014000511D0008511D00080000000000000000C3
:10015000000000000000000000000000000000009F
:10016000000000000000000000000000511D000819
:10017000511D000800000000000000000000000009
:1001800000000000511D00080000000000000000F9
:10019000000000000000000000000000000000005F
:1001A0000000000000000000511D0008511D000863
:1001B000511D0008511D0008511D000800000000DD
:1001C00000000000511D00080000000000000000B9
:0801D000511D0008511D00083B
:1002000010B5054C237833B9044B13B10448AFF350
:1002100000800123237010BDB809002000000000F9
:10022000D8B3000808B5034B1BB103490348AFF32B
:10023000008008BD00000000BC090020D8B3000801
:1002400081F0004102E000BF83F0004330B54FEA87
:1002500041044FEA430594EA050F08BF90EA020FF4
:100260001FBF54EA000C55EA020C7FEA645C7FEA87
:10027000655C00F0E2804FEA5454D4EB5555B8BFAA
:100280006D420CDD2C4480EA020281EA030382EA1B
:10029000000083EA010180EA020281EA0303362DAD
:1002A00088BF30BD11F0004F4FEA01314FF4801C80
:1002B0004CEA113102D0404261EB410113F0004F92
:1002C0004FEA03334CEA133302D0524263EB430349
:1002D00094EA050F00F0A780A4F10104D5F1200EE7
:1002E0000DDB02FA0EFC22FA05F2801841F1000142
:1002F00003FA0EF2801843FA05F359410EE0A5F116
:1003000020050EF1200E012A03FA0EFC28BF4CF046
:10031000020C43FA05F3C01851EBE37101F00045FC
:1003200007D54FF0000EDCF1000C7EEB00006EEB09
:100330000101B1F5801F1BD3B1F5001F0CD3490893
:100340005FEA30004FEA3C0C04F101044FEA4452EA
:1003500012F5800F80F09A80BCF1004F08BF5FEA71
:10036000500C50F1000041EB045141EA050130BD51
:100370005FEA4C0C404141EB0101013C28BFB1F563
:10038000801FE9D291F0000F04BF01460020B1FAAE
:1003900081F308BF2033A3F10B03B3F120020CDA81
:1003A0000C3208DD02F1140CC2F10C0201FA0CF05F
:1003B00021FA02F10CE002F11402D8BFC2F1200CC4
:1003C00001FA02F120FA0CFCDCBF41EA0C0190407A
:1003D000E41AA2BF01EB0451294330BD6FEA0404C3
:1003E0001F3C1CDA0C340EDC04F11404C4F12002AE
:1003F00020FA04F001FA02F340EA030021FA04F3C0
:1004000045EA030130BDC4F10C04C4F1200220FA16
:1004100002F001FA04F340EA0300294630BD21FA54
:1004200004F0294630BD94F0000F83F4801306BF1A
:1004300081F480110134013D4EE77FEA645C18BF0E
:100440007FEA655C29D094EA050F08BF90EA020FA5
:1004500005D054EA000C04BF1946104630BD91EA9D
:10046000030F1EBF0021002030BD5FEA545C05D1A0
:100470004000494128BF41F0004130BD14F58004DF
:100480003CBF01F5801130BD01F0004545F0FE4153
:1004900041F470014FF0000030BD7FEA645C1ABF88
:1004A000194610467FEA655C1CBF0B46024650EABF
:1004B000013406BF52EA033591EA030F41F40021EB
:1004C00030BD00BF90F0000F04BF0021704730B571
:1004D0004FF4806404F132044FF000054FF0000146
:1004E00050E700BF90F0000F04BF0021704730B507
:1004F0004FF4806404F1320410F0004548BF4042DC
:100500004FF000013EE700BF42004FEAE2014FEA30
:1005100031014FEA02701FBF12F07F4393F07F4F0B
:1005200081F06051704732F07F4208BF704793F00E
:100530007F4F04BF41F40021704730B54FF4607421
:1005400001F0004521F000411CE700BF50EA010224
:1005500008BF704730B54FF000050AE050EA0102CD
:1005600008BF704730B511F0004502D5404261EB3D
:1005700041014FF4806404F132045FEA915C3FF47E
:10058000D8AE4FF003025FEADC0C18BF03325FEA1B
:10059000DC0C18BF033202EBDC02C2F1200300FACC
:1005A00003FC20FA02F001FA03FE40EA0E0021FAF1
:1005B00002F11444BDE600BF4FEA4102B2F1E0434C
:1005C00024BFB3F5001CDCF1FE5C0DD901F0004C3A
:1005D0004FEAC0024CEA5070B2F1004F40EB83008A
:1005E00008BF20F00100704711F0804F21D113F1B6
:1005F0003872BCBF01F00040704741F480114FEAEF
:100600005252C2F11802C2F1200C10FA0CF320FA77
:1006100002F018BF40F001004FEAC1234FEAD32394
:1006200003FA0CFC40EA0C0023FA02F34FEA4303FE
:10063000CCE77FEA625307D150EA01331EBF4FF087
:10064000FE4040F44000704701F0004040F0FE40A2
:1006500040F40000704700BF53B94AB9002908BFF1
:1006600000281CBF4FF0FF314FF0FF3000F074B98D
:10067000ADF1080C6DE904CE00F006F8DDF804E0F9
:10068000DDE9022304B070472DE9F047089D0446D8
:100690008E46002B4DD18A42944669D9B2FA82F235
:1006A00052B101FA02F3C2F1200120FA01F10CFA71
:1006B00002FC41EA030E94404FEA1C48210CBEFBA9
:1006C000F8F61FFA8CF708FB16E341EA034306FB32
:1006D00007F199420AD91CEB030306F1FF3080F0C1
:1006E0001F81994240F21C81023E63445B1AA4B20E
:1006F000B3FBF8F008FB103344EA034400FB07F7B0
:10070000A7420AD91CEB040400F1FF3380F00A81F0
:10071000A74240F207816444023840EA0640E41BE5
:1007200000261DB1D4400023C5E900433146BDE891
:10073000F0878B4209D9002D00F0EF800026C5E933
:10074000000130463146BDE8F087B3FA83F6002E4B
:100750004AD18B4202D3824200F2F980841A61EBC3
:10076000030301209E46002DE0D0C5E9004EDDE7E1
:1007700002B9FFDEB2FA82F2002A40F09280A1EBC9
:100780000C014FEA1C471FFA8CFE0126200CB1FB1E
:10079000F7F307FB131140EA01410EFB03F0884217
:1007A00008D91CEB010103F1FF3802D2884200F2A4
:1007B000CB804346091AA4B2B1FBF7F007FB101136
:1007C00044EA01440EFB00FEA64508D91CEB0404D4
:1007D00000F1FF3102D2A64500F2BB800846A4EB2F
:1007E0000E0440EA03409CE7C6F12007B34022FA1A
:1007F00007FC4CEA030C20FA07F401FA06F31C4349
:10080000F9404FEA1C4900FA06F3B1FBF9F8200C55
:100810001FFA8CFE09FB181140EA014108FB0EF09B
:10082000884202FA06F20BD91CEB010108F1FF3AEB
:1008300080F08880884240F28580A8F102086144F7
:10084000091AA4B2B1FBF9F009FB101144EA014105
:1008500000FB0EFE8E4508D91CEB010100F1FF34B0
:100860006CD28E456AD90238614440EA0840A0FB48
:100870000294A1EB0E01A142C846A64656D353D01E
:100880005DB1B3EB080261EB0E0101FA07F722FA42
:1008900006F3F1401F43C5E9007100263146BDE86B
:1008A000F087C2F12003D8400CFA02FC21FA03F3CE
:1008B000914001434FEA1C471FFA8CFEB3FBF7F04F
:1008C00007FB10360B0C43EA064300FB0EF69E4274
:1008D00004FA02F408D91CEB030300F1FF382FD20D
:1008E0009E422DD9023863449B1B89B2B3FBF7F6B5
:1008F00007FB163341EA034106FB0EF38B4208D98E
:100900001CEB010106F1FF3816D28B4214D9023ECE
:100910006144C91A46EA004638E72E46284605E7EC
:100920000646E3E61846F8E64B45A9D2B9EB0208BD
:1009300064EB0C0E0138A3E74646EAE7204694E74D
:100940004046D1E7D0467BE7023B614432E7304680
:1009500009E76444023842E7704700BF0000000026
:1009600001F0FF01102A2BDB10F0070F08D010F860
:10097000013B013A8B422DD010F0070F42B3F6D164
:10098000F0B441EA012141EA014122F007047FF07D
:1009900000070023F0E80256083C85EA010586EAD4
:1009A000010685FA47F5A3FA87F586FA47F6A5FA10
:1009B00087F68EB9EED1F0BC01F0FF0102F007021C
:1009C00032B110F8013B013A83EA010313B1F8D1C7
:1009D0000020704701387047002D06BF35460338A8
:1009E000073815F0010F07D1013015F4807F02BFE1
:1009F000013015F4C03F0130F0BC0138704700BF32
:100A0000844641EA000313F003036DD1403A41D319
:100A100051F8043B40F8043B51F8043B40F8043BD8
:100A200051F8043B40F8043B51F8043B40F8043BC8
:100A300051F8043B40F8043B51F8043B40F8043BB8
:100A400051F8043B40F8043B51F8043B40F8043BA8
:100A500051F8043B40F8043B51F8043B40F8043B98
:100A600051F8043B40F8043B51F8043B40F8043B88
:100A700051F8043B40F8043B51F8043B40F8043B78
:100A800051F8043B40F8043B51F8043B40F8043B68
:100A9000403ABDD2303211D351F8043B40F8043B08
:100AA00051F8043B40F8043B51F8043B40F8043B48
:100AB00051F8043B40F8043B103AEDD20C3205D318
:100AC00051F8043B40F8043B043AF9D2043208D010
:100AD000D2071CBF11F8013B00F8013B01D30B8882
:100AE00003806046704700BF082A13D38B078DD060
:100AF00010F003038AD0C3F10403D21ADB071CBF32
:100B000011F8013B00F8013B80D331F8023B20F89B
:100B1000023B7BE7043AD9D3013A11F8013B00F8D4
:100B2000013BF9D20B7803704B7843708B7883705C
:100B30006046704700000000000000000000000058
:100B400090F800F06DE9024520F007016FF0000C0D
:100B500010F0070491F820F040F049804FF00004B5
:100B60006FF00700D1E9002391F840F000F1080090
:100B700082FA4CF2A4FA8CF283FA4CF3A2FA8CF3C8
:100B80004BBBD1E9022382FA4CF200F10800A4FA2F
:100B90008CF283FA4CF3A2FA8CF3E3B9D1E9042383
:100BA00082FA4CF200F10800A4FA8CF283FA4CF3BA
:100BB000A2FA8CF37BB9D1E9062301F1200182FA74
:100BC0004CF200F10800A4FA8CF283FA4CF3A2FA7A
:100BD0008CF3002BC6D0002A04BF04301A4612BA88
:100BE000B2FA82F2FDE8024500EBD2007047D1E98B
:100BF000002304F00305C4F100004FEAC50514F01A
:100C0000040F91F840F00CFA05F562EA05021CBFEA
:100C100063EA050362464FF00004A9E770B54FF0A0
:100C2000FF0C4CF4E06C1CEA11541DBF1CEA135578
:100C300094EA0C0F95EA0C0F00F0DEF82C4481EAE0
:100C4000030621EA4C5123EA4C5350EA013518BF00
:100C500052EA033541F4801143F4801338D0A0FBED
:100C600002CE4FF00005E1FB02E506F00042E0FB9A
:100C700003E54FF00006E1FB03569CF0000F18BFA0
:100C80004EF0010EA4F1FF04B6F5007F64F5407448
:100C900004D25FEA4E0E6D4146EB060642EAC621DB
:100CA00041EA55514FEAC52040EA5E504FEACE2E48
:100CB000B4F1FD0C88BFBCF5E06F1ED8BEF1004F4B
:100CC00008BF5FEA500E50F1000041EB045170BDC7
:100CD00006F0004646EA010140EA020081EA03010B
:100CE000B4EB5C04C2BFD4EB0C0541EA045170BD07
:100CF00041F480114FF0000E013C00F3AB8014F181
:100D0000360FDEBF002001F0004170BDC4F10004C9
:100D1000203C35DA0C341BDC04F11404C4F120054A
:100D200000FA05F320FA04F001FA05F240EA0200A5
:100D300001F0004221F0004110EBD37021FA04F6DB
:100D400042EB06015EEA430E08BF20EAD37070BD95
:100D5000C4F10C04C4F1200500FA04F320FA05F0F4
:100D600001FA04F240EA020001F0004110EBD370F6
:100D700041F100015EEA430E08BF20EAD37070BD66
:100D8000C4F1200500FA05F24EEA020E20FA04F33F
:100D900001FA05F243EA020321FA04F001F00041EE
:100DA00021FA04F220EA020000EBD3705EEA430E5F
:100DB00008BF20EAD37070BD94F0000F0FD101F08E
:100DC0000046400041EB010111F4801F08BF013CC7
:100DD000F7D041EA060195F0000F18BF704703F005
:100DE0000046520043EB030313F4801F08BF013D8C
:100DF000F7D043EA0603704794EA0C0F0CEA135548
:100E000018BF95EA0C0F0CD050EA410618BF52EA01
:100E10004306D1D181EA030101F000414FF0000007
:100E200070BD50EA410606BF1046194652EA430615
:100E300019D094EA0C0F02D150EA013613D195EA89
:100E40000C0F05D152EA03361CBF104619460AD1D1
:100E500081EA030101F0004141F0FE4141F47001DB
:100E60004FF0000070BD41F0FE4141F4780170BDCB
:100E700070B54FF0FF0C4CF4E06C1CEA11541DBF30
:100E80001CEA135594EA0C0F95EA0C0F00F0A7F832
:100E9000A4EB050481EA030E52EA03354FEA01315F
:100EA00000F088804FEA03334FF0805545EA131372
:100EB00043EA12634FEA022245EA111545EA10653A
:100EC0004FEA00260EF000419D4208BF964244F1D1
:100ED000FD0404F5407402D25B084FEA3202B61AF0
:100EE00065EB03055B084FEA32024FF480104FF4C4
:100EF000002CB6EB020E75EB030E22BFB61A754638
:100F000040EA0C005B084FEA3202B6EB020E75EBCA
:100F1000030E22BFB61A754640EA5C005B084FEA32
:100F20003202B6EB020E75EB030E22BFB61A7546FF
:100F300040EA9C005B084FEA3202B6EB020E75EB0A
:100F4000030E22BFB61A754640EADC0055EA060ECB
:100F500018D04FEA051545EA16754FEA06164FEA0E
:100F6000C30343EA52734FEAC2025FEA1C1CC0D1BA
:100F700011F4801F0BD141EA00014FF000004FF047
:100F8000004CB6E711F4801F04BF01430020B4F108
:100F9000FD0C88BFBCF5E06F3FF6AFAEB5EB030CC0
:100FA00004BFB6EB020C5FEA500C50F1000041EBBD
:100FB000045170BD0EF0004E4EEA113114EB5C048A
:100FC000C2BFD4EB0C0541EA045170BD41F480115D
:100FD0004FF0000E013C90E645EA060E8DE60CEA65
:100FE000135594EA0C0F08BF95EA0C0F3FF43BAF82
:100FF00094EA0C0F0AD150EA01347FF434AF95EA39
:101000000C0F7FF425AF104619462CE795EA0C0F1C
:1010100006D152EA03353FF4FDAE1046194622E7E9
:1010200050EA410618BF52EA43067FF4C5AE50EAC3
:1010300041047FF40DAF52EA43057FF4EBAE12E7B3
:101040004FF0FF3C06E000BF4FF0010C02E000BF94
:101050004FF0010C4DF804CD4FEA410C7FEA6C5C77
:101060004FEA430C18BF7FEA6C5C1BD001B050EA1A
:10107000410C0CBF52EA430C91EA030F02BF90EA05
:10108000020F0020704710F1000F91EA030F58BFC4
:10109000994208BF90422CBFD8176FEAE37040F026
:1010A000010070474FEA410C7FEA6C5C02D150EAC4
:1010B000013C07D14FEA430C7FEA6C5CD6D152EA7F
:1010C000033CD3D05DF8040B704700BF8446104644
:1010D00062468C461946634600E000BF01B5FFF743
:1010E000B7FF002848BF10F1000F01BD4DF808ED13
:1010F000FFF7F4FF0CBF012000205DF808FB00BFE4
:101100004DF808EDFFF7EAFF34BF012000205DF83D
:1011100008FB00BF4DF808EDFFF7E0FF94BF01208A
:1011200000205DF808FB00BF4DF808EDFFF7CEFF8B
:1011300094BF012000205DF808FB00BF4DF808EDCA
:10114000FFF7C4FF34BF012000205DF808FB00BF9B
:101150004FEA410C7FEA6C5C02D150EA013C0AD1B3
:101160004FEA430C7FEA6C5C02D152EA033C02D1A5
:101170004FF0000070474FF0010070474FEA410206
:1011800012F5001215D211D56FF47873B3EB6252D9
:1011900012D94FEAC12343F0004343EA505311F000
:1011A000004F23FA02F018BF404270474FF0000092
:1011B000704750EA013005D111F0004008BF6FF0D0
:1011C000004070474FF00000704700BF70EE600AAB
:1011D000354BC3ED000A354BD3ED007AF5EEC07AFE
:1011E000F1EE10FA52DD9FED327AF4EEC77AF1EEAD
:1011F00010FACCBF01230023002B51D02D4B00222D
:101200001A602C4B93ED006A2B4BD3ED007A76EEEF
:10121000277A67EE817AB6EE000A67EE807A274A6F
:1012200092ED000A77EE807AC2ED007AB0EE087A8D
:1012300020EE877A224AD2ED005AF1EE006A65EE7E
:10124000A66A37EE667A1F49D1ED006A37EE267A34
:1012500031EE011AC7EE016A1B48C0ED006A9FED2E
:101260001B7A27EE870A30EE800A66EE876A30EE38
:10127000260A174880ED000AC1ED005AC2ED000AA7
:1012800083ED006A094B83ED000A70479FED117AE8
:10129000F4EEC77AF1EE10FA4CBF01230023ABE75E
:1012A000044BC3ED000AACE7DC090020F409002080
:1012B00000806D44D4090020D8090020EC090020EA
:1012C000E4090020E8090020E009002000000000F7
:1012D000F009002000806DC430B589B0002403946B
:1012E0000494059406940794184BDA6C42F00102BA
:1012F000DA64DA6C02F001020192019ADA6C42F0CF
:101300000202DA64DB6C03F002030293029B104DCD
:1013100022464FF4C071284601F058F94FF480631B
:1013200003930C4B0493059403A94FF0904001F0F4
:1013300073F84FF4C0730393012304930594069448
:1013400003A9284601F068F809B030BD001002403A
:10135000000400480000111038B502680C4B9A4296
:1013600000D038BD0B4D284603F01AFE044607EEA8
:10137000900AF8EEE77A084BC3ED007A032229467B
:10138000064803F051FD2146054803F089FEE8E7D1
:10139000004400401C0A00201C0C0020700B0020A0
:1013A000F0B3000810B514460A2392B2024803F0C5
:1013B000E2FB204610BD00BF700B002000000000C3
:1013C000F8B52DED028B04460268614B9A4206D0B7
:1013D0002368B3F1804F05D0BDEC028BF8BD00F05F
:1013E000C7FCF5E75B4B19684B6A1BB25A4A13807E
:1013F00000234B6213881BB207EE903AF8EEE77AAF
:101400009FED567A67EE877A9FED558A87EE887A48
:10141000DFED548A67EE287A534DC5ED007A534CC0
:101420002068FFF771F846A3D3E90023FFF7F6FB26
:1014300006460F4695ED007AC7EE287A77EEA77A32
:101440009FED4B7A67EE877AB6EE007A67EE877A81
:101450009FED487A67EE877A17EE900AFFF754F807
:1014600039A3D3E90023FFF7D9FB02460B463046E8
:101470003946FEF7EBFEFFF79FF820603E4B93EDF9
:10148000000AD4ED000AB0EE481AFFF79FFE3B4B6E
:10149000D3ED007A77EE807AC3ED007A93ED007A8F
:1014A000DFED377AB4EEE77AF1EE10FA22DDC3ED24
:1014B000007A324BD3ED007AF5EEC07AF1EE10FAF5
:1014C00025D92E4BD3ED007AFDEEE77A17EE903A50
:1014D0002C4A1268C3F57A7353632B4C0122802186
:1014E000204601F073F800224FF48071204601F08D
:1014F0006DF871E7214B93ED007ADFED247AB4EEBD
:10150000E77AF1EE10FAD4D5C3ED007AD1E7D3ED46
:10151000007AFDEEE77A17EE903A1A4A126803F560
:101520007A735363184C00228021204601F04EF854
:1015300001224FF48071204601F048F84CE700BFCB
:101540009A9999999999E93F989999999999C93F3F
:10155000004401408C0A0020200A00200000803A4C
:101560006F12833A00007042000C0020200C002013
:10157000C3F548409A99993D1C0C0020240A00208C
:1015800000806D44240B00200004004800806DC4DE
:1015900072B6FEE710B50F480F4B0360002343609F
:1015A0008360C36003744374837405224261022222
:1015B00082610D24C4610262012141628262C462BF
:1015C000026341638363C36300F0FAFC00B910BD9A
:1015D000FFF7DEFF280A00200064004008B5154828
:1015E000154B03604FF4E133436000238360C36015
:1015F00003610C2242618361C361036243628362BF
:1016000003F062FB70B900210A4803F07FFC58B96F
:101610000021084803F09FFC40B9064803F057FC3E
:1016200030B908BDFFF7B4FFFFF7B2FFFFF7B0FF17
:10163000FFF7AEFF700B00200044004000B58DB0F6
:101640002422002103A803F0D9FC00230093019376
:1016500002931248124A0260436083604FF6FF72A1
:10166000C2600361436183610323039301230593F4
:10167000099303A902F062F958B90023009301937A
:1016800002936946054802F043FC20B90DB05DF8AD
:1016900004FBFFF77DFFFFF77BFF00BF8C0A0020F4
:1016A000002C014000B589B00023049305930693F4
:1016B000079301930293039313484FF08042026013
:1016C0004F224260836040F2E732C260036183616F
:1016D00002F0D4F890B94FF48053049304A90A4857
:1016E00002F070FA60B900230193039301A9064840
:1016F00002F00EFC30B909B05DF804FBFFF748FFBB
:10170000FFF746FFFFF744FFD80A002000B58FB06F
:1017100000230A930B930C930D930793089309935B
:1017200000930193029303930493059306931E4839
:101730001E4A026007224260836040F2E732C260C4
:101740000361836102F09AF820BB4FF480530A933F
:101750000AA9154802F036FAF0B9134802F0BEF8AB
:10176000E0B900230793099307A90F4802F0D0FBC3
:10177000B0B960230093002201920292049269465C
:10178000094802F07DF968B9074800F085F90FB003
:101790005DF804FBFFF7FCFEFFF7FAFEFFF7F8FE2B
:1017A000FFF7F6FEFFF7F4FE240B002000080040D0
:1017B00000B5A5B03822002116A803F01FFC0021B7
:1017C000119112911391149115914422684603F0DE
:1017D00015FC4FF4007000F0FFFE022316934FF447
:1017E0008072199240221A921D931E9301221F9219
:1017F0000A22209221932293239316A800F0A6FF99
:10180000D8B90F2311930323129300231393149336
:101810001593022111A801F051FA80B941F2020397
:101820000093002302934FF000730C93684601F07D
:1018300089FB30B925B05DF804FBFFF7A9FEFFF77F
:10184000A7FEFFF7A5FE000000B583B0294B1B687B
:101850000021986803F038FC00F07BFAFFF7A8FF3E
:10186000FFF73AFDFFF796FEFFF7B8FEFFF7E6FE3B
:10187000FFF718FFFFF74AFF1F4B40F601121A60EF
:1018800000225A609A604FF48031D9601A614FF497
:10189000801159614FF400119961DA611A62174998
:1018A000174800F077FC08B1FFF772FE00230093A1
:1018B00002221146124800F0A0FC08B1FFF768FEB2
:1018C0000F4800F0BBFC08B1FFF762FE03220D4990
:1018D0000D4803F0A9FA0D4801F01EFE3C210C480A
:1018E00002F0B0FA00210B4802F000FA642000F088
:1018F00051FAFBE70C000020F8090020040C00203E
:10190000280A00201C0A0020700B0020D80A0020A2
:101910008C0A0020240B002000B583B00B4B1A6EFC
:1019200042F001021A661A6E02F001020092009A59
:101930009A6D42F080529A659B6D03F0805301933B
:10194000019B00F0CFFE03B05DF804FB00100240E5
:1019500000B589B00023039304930593069307937E
:101960000268174B9A4202D009B05DF804FB03F5F8
:10197000D6339A6D42F000729A659A6D02F0007249
:101980000192019ADA6C42F00102DA64DB6C03F036
:1019900001030293029B4FF4C05303930223049369
:1019A0000923079303A94FF0904000F035FD002272
:1019B0001146152000F014FA152000F049FAD3E77B
:1019C0000064004000B589B000230393049305939D
:1019D000069307930268174B9A4202D009B05DF84C
:1019E00004FB03F564431A6E42F400621A661A6E31
:1019F00002F400620192019ADA6C42F00102DA64A8
:101A0000DB6C03F001030293029B4FF440730393DA
:101A1000022304930623079303A94FF0904000F09C
:101A2000FBFC00220F21192000F0DAF9192000F048
:101A30000FFAD3E7002C014000B583B00368B3F17F
:101A4000804F05D0124A934216D003B05DF804FBD4
:101A500003F504339A6D42F001029A659B6D03F021
:101A600001030093009B002211461C2000F0B8F9EE
:101A70001C2000F0EDF9E8E7064B9A6D42F00402F5
:101A80009A659B6D03F004030193019BDDE700BFA2
:101A9000000800400010024000B587B00023019309
:101AA000029303930493059302680D4B9A4202D06C
:101AB00007B05DF804FB03F50233DA6C42F0020272
:101AC000DA64DB6C03F002030093009B4023019374
:101AD00002230293059301A9024800F09DFCE7E769
:101AE000000800400004004800B589B000230393BB
:101AF00004930593069307930268174B9A4202D00A
:101B000009B05DF804FB03F5E6339A6D42F4003248
:101B10009A659A6D02F400320192019ADA6C42F0F1
:101B20000102DA64DB6C03F001030293029B0C23D5
:101B30000393022304930723079303A94FF09040D4
:101B400000F06AFC00221146262000F049F9262008
:101B500000F07EF9D4E700BF0044004030B589B002
:101B600004461E4B1A6E42F400321A661B6E03F4D2
:101B700000330193019B02A903A801F0C5F901F00C
:101B8000B1F903461648A0FB03239B0C013B154803
:101B9000154A026040F2E732C260436000230361ED
:101BA000836001F06BFE054610B1284609B030BDD8
:101BB0000C4801F0B1FC05460028F6D1192000F0D0
:101BC00047F90F2C01D90125EFE700222146192002
:101BD00000F006F9054B1C60E7E700BF001002406B
:101BE00083DE1B43240C0020004401400800002039
:101BF000FEE7FEE7FEE7FEE7FEE770477047704747
:101C00007047000008B5024800F03AFB08BD00BF6D
:101C1000280A002008B5034801F0C5FC024801F07D
:101C2000C2FC08BD8C0A0020240C002008B5024824
:101C300001F0B9FC08BD00BFD80A002008B5024871
:101C400002F0EEF908BD00BF700B002001207047C4
:101C500008B503F0A9F9162303604FF0FF3008BD63
:101C600008B54FF0FF31FFF7F3FFFEE770B50C4604
:101C70001646002506E0AFF30080214601F8010B6F
:101C800001350C46B542F6DB304670BD4FF0FF30F3
:101C900070474FF400534B6000207047012070479D
:101CA0000020704710B503460C4A0D490D480068E6
:101CB00040B10C4800680344521A934206D8094ABE
:101CC000136010BD0748084C0460F2E703F06CF99C
:101CD0000C2303604FF0FF30F3E700BF00800020CB
:101CE00000040000700C0020C00C0020034AD2F851
:101CF000883043F47003C2F88830704700ED00E08C
:101D00000D4885460D480E490E4A002302E0D4587E
:101D1000C4500433C4188C42F9D30B4A0B4C002333
:101D200001E013600432A242FBD3FFF7DFFF03F0B0
:101D300041F9FFF789FDFEE7008000200000002048
:101D4000B809002048B80008B8090020C00C0020DD
:101D5000FEE710B5032000F031F80F20FFF7FEFE7C
:101D600010B10124204610BD0446FFF7D5FDF9E768
:101D7000034A1368034909680B441360704700BFA6
:101D8000740C002004000020014B1868704700BF4D
:101D9000740C002038B50446FFF7F6FF0546B4F191
:101DA000FF3F02D0044B1B681C44FFF7EDFF401BB4
:101DB000A042FAD338BD00BF04000020074AD36810
:101DC00023F4E0631B041B0C000200F4E0600343F7
:101DD00043F0BF6343F40033D360704700ED00E08D
:101DE00000B5194BDB68C3F30223C3F1070CBCF148
:101DF000040F28BF4FF0040C03F1040EBEF1060FD0
:101E000018D9033B4FF0FF3E0EFA0CFC21EA0C01FF
:101E100099400EFA03F322EA0303194300280BDB6F
:101E20000901C9B200F1604000F5614080F800137B
:101E30005DF804FB0023E5E700F00F000901C9B2DB
:101E4000024B1954F4E700BF00ED00E014ED00E090
:101E5000002807DB00F01F02400901239340024ADB
:101E600042F82030704700BF00E100E0034690F8E0
:101E70002520D2B2022A09D00422C2630120012205
:101E800083F82520002283F82420704701680A681F
:101E900022F00E020A60816C0A6822F480720A60E5
:101EA00001680A6822F001020A60426C02F01F0118
:101EB000006C01228A404260DA6C196D51605A6DE3
:101EC00042B1116821F4807111609A6DD96D516031
:101ED0000020D4E70020D2E708B590F82530DBB227
:101EE000022B09D00423C363012380F8253000228C
:101EF00080F82420184608BD0268136823F00E03FA
:101F000013600268136823F001031360826C136886
:101F100023F480731360436C03F01F02016C0123F0
:101F200093404B60C36C026D5A60436D33B11A68C5
:101F300022F480721A60836DC26D5A60012380F8AA
:101F40002530002380F82430836B13B1984700209C
:101F5000D1E70020CFE7000010B4154B03640168FF
:101F6000D1F8802022F4F812446B42EA0442C1F80E
:101F70008020104A42640168D1F8802022F070620B
:101F8000846B42EA0462C1F880200B4A8264D83232
:101F9000C264D83202651832426502E0002243F87A
:101FA000042B064A9342F9D95DF8044B704700BFF1
:101FB00000A4004070A40040B0A400404FA700401F
:101FC000002800F0E38038B5044690F85C30D3B1C7
:101FD0002268936923F010039361FFF7D5FE05464D
:101FE00023689A6912F0080F12D0FFF7CDFE401B4C
:101FF0000A28F5D9236E43F001032366032384F8EE
:102000005C30012038BD80F85D30FFF7A1FCDFE7D0
:102010009A6942F001029A61FFF7B6FE054623680D
:102020009A6912F0010F0DD1FFF7AEFE401B0A288E
:10203000F5D9236E43F001032366032384F85C3053
:102040000120DFE79A6942F002029A612268504B50
:102050009A4242D0237C012B45D02268936943F0F9
:1020600040039361637C012B43D02268936923F47E
:1020700080439361A37C012B41D02268936943F490
:10208000805393612268936923F44073A1680B43E2
:1020900093612268936923F0A40393612268136912
:1020A00023F010031361E368012B2ED0002B31D0F5
:1020B000022B54D02268936943F080039361226815
:1020C000136943F010031361E368032B22D12268E4
:1020D000936943F0200393611CE06268A3F5806379
:1020E000C3F80025B6E72268936923F040039361A3
:1020F000B8E72268936943F480439361BAE72268A2
:10210000936923F480539361BCE72268936943F099
:1021100004039361A3695A1EE369013B1B0243EA6E
:102120004263226A013A13436269013A216843EA31
:102130000243CB61A368B3F5407F16D02268D2F882
:10214000C030E16B0B43C2F8C0302046FFF704FFFC
:102150000020A0652066012384F85C3052E72268E5
:10216000936943F020039361D4E7A36A013BE26AD9
:10217000013A43EA0223226B013A43EA0213626AFC
:10218000013A216843EA0243CB60D7E70120704758
:102190000064004090F85C30013BDBB2012B05D9B4
:1021A000036E43F002030366012070470B68A3B17E
:1021B00010B4CA680B6943EA42724B698C6843EAFF
:1021C0008473406C496800EBC10C40F83120CCF8B6
:1021D000043000205DF8044B70478A68CB68DB064A
:1021E00043EA82730A6943EA02434A691343026C71
:1021F000496842F821300020704790F85CC05FFACF
:102200008CFCBCF1010F05D0036E43F004030366A0
:102210000120704710B40468D4F8800020F03F001B
:10222000920042EA011242EA4302019B1A4302432E
:10223000C4F8802000205DF8044B704790F85C30B3
:10224000DBB2012B05D0036E43F0040303660120CB
:102250007047022380F85C300268936923F0010321
:1022600093610023036618467047704770477047B4
:1022700070477047704770477047704770477047A6
:102280002DE9F843044603681A6D02F4E0595A6DCB
:1022900009EA02091A6D02F007085A6D08EA0208F5
:1022A0001F6D07F038075A6D17401D6D05F4710555
:1022B0005A6D15401E6D06F460265A6D16401A6D53
:1022C00012F0400F03D05A6D12F0400F51D1236825
:1022D0001A6D12F4807F03D05A6D12F4807F4DD1B5
:1022E000B9F1000F56D1B8F1000F5BD1002F61D1C9
:1022F00023681A6D12F4007F03D05A6D12F4007F28
:102300005FD123681A6D12F0800F03D05A6D12F05E
:10231000800F5DD123681A6D12F4005F03D05A6DEF
:1023200012F4005F5FD123681A6D12F4004F03D0DE
:102330005A6D12F4004F5DD123681A6D12F4804F6C
:102340000AD05A6D12F4804F06D04FF480421A65BD
:10235000236E43F080032366002E52D125B12368FB
:102360001D65236E1D432566236E002B50D1BDE8ED
:10237000F88340221A65FFF780FFA8E7D3F8D8104A
:10238000D3F8E0204FF48070186511402046FFF725
:1023900071FFA5E72368C3F8509049462046FFF730
:1023A00064FFA0E72368C3F8508041462046FFF74A
:1023B0005DFF9BE723681F6539462046FFF757FFFF
:1023C00096E74FF400721A652046FFF751FF98E731
:1023D000D3F8D410D3F8DC208020186511402046B3
:1023E000FFF747FF96E74FF400521A652046FFF7C4
:1023F00042FF98E74FF400421A652046FFF73CFF82
:102400009AE723681E6531462046FFF738FFA5E7A7
:102410002046FFF733FFAAE7F0B583B0002336E08C
:10242000052400E00024B4403C430235634E46F8E6
:102430002540634C2568D44325EA02064F6817F40B
:10244000803F01D042EA05065D4D2E606D6804EACA
:1024500005064F6817F4003F01D042EA0506584DC3
:102460006E60AD6804EA05064F6817F4801F01D05E
:1024700042EA0506524DAE60ED682C404E6816F4F7
:10248000001F01D042EA05044D4AD46001330A68B6
:1024900032FA03F400F08F804FF0010C0CFA03FCC9
:1024A0001CEA0202F2D04C68651E012D03D9112CE2
:1024B00001D0122C13D185685E000324B44025EAB4
:1024C0000405CC68B4402C438460446824EA0C0CB6
:1024D0004C68C4F300149C4044EA0C044460C66891
:1024E0004FEA430C032505FA0CF5EC4326EA050EEA
:1024F0008D6805FA0CF545EA0E05C5604D68022D9C
:1025000001D0122D12D1DE08083650F8267003F0E3
:1025100007054FEA850E0F2505FA0EF527EA050790
:102520000D6905FA0EF53D4340F826500568254033
:102530004C6804F0030404FA0CF42C4304604C6867
:1025400014F0805FA2D01F4C256E45F00105256672
:10255000246E04F001040194019C9D08AE1C174CEC
:1025600054F8267003F00304A6000F24B44027EAB1
:102570000407B0F1904F3FF455AF134CA04212D076
:1025800004F58064A04210D004F58064A0420ED00F
:1025900004F58064A0420CD004F58064A0423FF4AE
:1025A0003FAF06243FE701243DE702243BE7032435
:1025B00039E7042437E703B0F0BD00BF0000014055
:1025C0000004014000100240000400480AB181618B
:1025D0007047816270470000002836D13E4B1B686F
:1025E00003F4C063B3F5806F08D03B4AD2F8803063
:1025F00023F48073C2F8803000207047364AD2F846
:10260000803023F48073C2F88030136823F4C063F1
:1026100043F400731360314B1B68322202FB03F357
:102620002F4AA2FB03239B0C013300E0013B2A4A03
:10263000526912F4806F01D0002BF7D1264B5B69F1
:1026400013F4806F44D100207047B0F5007F08D0AC
:10265000214A136823F4C06343F4806313600020AD
:1026600070471D4B1B6803F4C063B3F5806F08D03F
:10267000194AD2F8803043F48073C2F880300020C9
:102680007047154AD2F8803043F48073C2F8803026
:10269000136823F4C06343F4007313600F4B1B688B
:1026A000322202FB03F30E4AA2FB03239B0C0133ED
:1026B00000E0013B084A526912F4806F01D0002B00
:1026C000F7D1054B5B6913F4806F03D1002070478D
:1026D0000320704703207047007000400000002076
:1026E00083DE1B43024A936843F480439360704740
:1026F00000700040124BDA6802F00302D868C0F3A1
:102700000310431C032A11D00E48B0FBF3F00C4B0E
:10271000DB68C3F3062303FB00F0094BDB68C3F35C
:10272000416301335B00B0FBF3F070470648B0FB38
:10273000F3F0034BDB68C3F3062303FB00F0ECE785
:10274000001002400024F40000127A00002800F07B
:10275000548270B582B00446036813F0010F37D07D
:10276000A44A936803F00C03D26802F003020C2B16
:1027700023D0082B23D06368B3F5803F4ED0B3F548
:10278000A02F51D09B4B1A6822F480321A601A682D
:1027900022F480221A606368002B52D0FFF7F4FA0B
:1027A0000546944B1B6813F4003F11D1FFF7ECFA78
:1027B000401B6428F5D9032028E2032AD9D18D4B88
:1027C0001B6813F4003F03D06368002B00F01782EE
:1027D000236813F0020F5DD0864A936803F00C0360
:1027E000D26802F003020C2B3AD0042B3AD0E368F3
:1027F000002B75D07F4A136843F480731360FFF792
:10280000C3FA05467B4B1B6813F4806F5FD1FFF75B
:10281000BBFA401B0228F5D90320F7E1754A13687B
:1028200043F480331360B6E703F18043A3F53C33F0
:102830001A6842F480221A601A6842F480321A60E0
:10284000A9E7FFF7A1FA05466A4B1B6813F4003F9E
:10285000BED0FFF799FA401B6428F5D90320D5E1D3
:10286000022AC2D1634B1B6813F4806F03D0E36864
:10287000002B00F0C6815F4A536823F0FE432169B4
:1028800043EA016353605C4B1868FFF767F900285F
:1028900040F0B981236813F0080F4CD063699BB3F3
:1028A000544AD2F8943043F00103C2F89430FFF751
:1028B0006BFA05464F4BD3F8943013F0020F3AD120
:1028C000FFF762FA401B0228F4D903209EE1494A2F
:1028D000536823F0FE43216943EA01635360D9E75B
:1028E000444A136823F480731360FFF74DFA0546DA
:1028F000404B1B6813F4806FCCD0FFF745FA401BA8
:102900000228F5D9032081E13A4AD2F8943023F025
:102910000103C2F89430FFF737FA0546354BD3F878
:10292000943013F0020F06D0FFF72EFA401B022856
:10293000F4D903206AE1236813F0040F00F08180CA
:102940002C4B9B6D13F0805F36D12A4B9A6D42F071
:1029500080529A659B6D03F080530193019B012582
:10296000264B1B6813F4807F28D0A368012B39D035
:10297000052B45D01F4BD3F8902022F00102C3F85D
:102980009020D3F8902022F00402C3F89020A3688E
:10299000002B43D0FFF7F8F90646164BD3F89030DA
:1029A00013F0020F4CD1FFF7EFF9801B41F288338F
:1029B0009842F2D9032029E10025D1E70F4A136894
:1029C00043F480731360FFF7DFF906460B4B1B6877
:1029D00013F4807FC9D1FFF7D7F9801B0228F5D9FE
:1029E000032013E1034AD2F8903043F00103C2F808
:1029F0009030CCE70010024008000020007000403A
:102A00008A4BD3F8902042F00402C3F89020D3F808
:102A1000902042F00102C3F89020B8E7FFF7B4F924
:102A20000646824BD3F8903013F0020F08D0FFF720
:102A3000ABF9801B41F288339842F2D90320E5E0DC
:102A4000E5B9236813F0200F35D0A369E3B1774AC5
:102A5000D2F8983043F00103C2F89830FFF794F9A8
:102A60000546724BD3F8983013F0020F23D1FFF7CD
:102A70008BF9401B0228F4D90320C7E06B4A936D01
:102A800023F080539365DCE7684AD2F8983023F04E
:102A90000103C2F89830FFF777F90546634BD3F886
:102AA000983013F0020F06D0FFF76EF9401B022892
:102AB000F4D90320AAE0E369002B00F0A6805B4A6A
:102AC000926802F00C020C2A69D0022B1DD0574BE1
:102AD0001A6822F080721A60DA6822F00302DA6063
:102AE000DA6822F0887222F48032DA60FFF74CF95B
:102AF00004464E4B1B6813F0007F4ED0FFF744F99D
:102B0000001B0228F5D9032080E0484A136823F00F
:102B100080731360FFF738F90546444B1B6813F0C8
:102B2000007F06D0FFF730F9401B0228F5D90320BB
:102B30006CE03E4AD3683E491940236A606A013816
:102B400043EA0013A06A43EA0023206B40080138DF
:102B500043EA4053606B4008013843EA4063E06A4F
:102B600043EAC0630B43D360136843F08073136080
:102B7000D36843F08073D360FFF706F904462B4B0C
:102B80001B6813F0007F06D1FFF7FEF8001B022838
:102B9000F5D903203AE0002038E0002036E0012B90
:102BA00036D0224BDB6803F00301226A914231D117
:102BB00003F0F002616A0139B2EB011F2CD103F47A
:102BC000FE42A16AB2EB012F28D103F07842E16AFC
:102BD000B2EBC16F24D103F4C001226B5208013A59
:102BE000B1EB425F1ED103F0C063626B5208013A41
:102BF000B3EB426F18D1002008E00120704701209C
:102C000004E0012002E0012000E0002002B070BDDD
:102C10000120FBE70120F9E70120F7E70120F5E7B4
:102C20000120F3E70120F1E70120EFE70010024067
:102C30000C809F011E4B9B6803F00C03042B33D0C8
:102C40001B4B9B6803F00C03082B2FD0184B9B6881
:102C500003F00C030C2B01D000207047144BDA68F2
:102C600002F00302D868C0F30310431C032A11D0FA
:102C70001048B0FBF3F00E4BDB68C3F3062303FBF5
:102C800000F00B4BDB68C3F3416301335B00B0FB27
:102C9000F3F070470848B0FBF3F0054BDB68C3F373
:102CA000062303FB00F0ECE7024870470248704738
:102CB000001002400024F40000127A00002800F006
:102CC000E680F8B50C460546744B1B6803F00F030D
:102CD0008B420BD2714A136823F00F030B4313602E
:102CE000136803F00F038B4240F0D3802E6816F078
:102CF00001065FD06B68032B2FD0022B4DD0684BA1
:102D00001B6813F4806F00F0C680FFF793FF654BDC
:102D100098424DD9624A936823F0F00343F0800350
:102D2000936080265E4A936823F0030369680B432F
:102D30009360FFF729F80746594B9B6803F00C0393
:102D40006A68B3EB820F35D0FFF71EF8C01B41F263
:102D500088339842F0D9032078E0514B1B6813F078
:102D6000007F01D1012071E0FFF7C4FC4D4B984278
:102D70001AD94B4B9B6813F0F00F05D02E6816F054
:102D80000206CFD0AB688BB9454A936823F0F003B5
:102D900043F0800393608026C4E7414B1B6813F423
:102DA000003FB2D1012051E00026BBE70026B9E781
:102DB0000026B7E72B6813F0020F48D013F0040F7A
:102DC00004D0374A936843F4E06393602B6813F0B0
:102DD000080F06D0324A936823F47C5343F4E0632F
:102DE00093602F4A936823F0F003A9680B43936024
:102DF0002A4B1B6803F00F03A34230D82B6813F053
:102E0000040F06D0264A936823F4E063E9680B4375
:102E100093602B6813F0080F07D0214A936823F4BE
:102E20006053296943EAC1039360FFF703FF1C4B1A
:102E30009B68C3F303131C4AD35C03F01F03D84001
:102E40001A4B18601A4B1868FEF788FEF8BD802EE2
:102E5000CED1134A936823F0F0039360C8E70F4A7A
:102E6000136823F00F0323431360FEF78DFF06461C
:102E70000A4B1B6803F00F03A342BFD0FEF784FF89
:102E8000801B41F288339842F2D90320DEE701200B
:102E900070470120DAE70120D8E700BF0020024098
:102EA0000010024000B4C404F8B300080000002081
:102EB00008000020014B1868704700BF0000002088
:102EC00008B5FFF7F7FF054B9B68C3F30223044ADD
:102ED000D35C03F01F03D84008BD00BF00100240C0
:102EE00008B4000808B5FFF7E5FF054B9B68C3F37E
:102EF000C223044AD35C03F01F03D84008BD00BFBF
:102F00000010024008B400080F2303600B4B9A68BE
:102F100002F0030242609A6802F0F00282609A684E
:102F200002F4E062C2609B68DB0803F4E0630361C3
:102F3000034B1B6803F00F030B6070470010024047
:102F400000200240F0B583B00446036813F4002F5C
:102F500069D0AE4B9B6D13F0805F1ED1AB4B9A6D69
:102F600042F080529A659B6D03F080530193019B60
:102F70000126A74A136843F480731360FEF704FF29
:102F80000546A34B1B6813F4807F08D1FEF7FCFEB7
:102F9000401B0228F5D9032502E00026E9E70025B9
:102FA00045BB9A4BD3F8903013F4407315D0226C84
:102FB0009A4212D0954AD2F8903023F44073D2F856
:102FC000901041F48031C2F89010D2F8901021F4A2
:102FD0008031C2F89010C2F8903013F0010F10D178
:102FE00045B98A4AD2F8903023F44073216C0B43E0
:102FF000C2F89030C6B1854A936D23F08053936533
:1030000012E0FEF7C1FE0746804BD3F8903013F074
:10301000020FE5D1FEF7B8FEC01B41F2883398429B
:10302000F2D90325DCE70025236813F0010F08D04F
:10303000764AD2F8883023F0030361680B43C2F864
:103040008830236813F0020F08D0704AD2F8883015
:1030500023F00C03A1680B43C2F88830236813F0F7
:10306000040F08D0694AD2F8883023F03003E168B1
:103070000B43C2F88830236813F0080F08D0634A66
:10308000D2F8883023F0C00321690B43C2F888309E
:10309000236813F0200F08D05C4AD2F8883023F45C
:1030A000406361690B43C2F88830236813F0400F16
:1030B00008D0564AD2F8883023F44053A1690B4314
:1030C000C2F88830236813F0800F08D04F4AD2F836
:1030D000883023F44043E1690B43C2F88830236809
:1030E00013F4807F08D0494AD2F8883023F4403363
:1030F000216A0B43C2F88830236813F4007F08D09C
:10310000424AD2F8883023F44023616A0B43C2F864
:103110008830236813F4806F0CD03C4AD2F8883092
:1031200023F44013A16A0B43C2F88830A36AB3F5B5
:10313000801F57D0236813F4006F0CD0334AD2F8A5
:10314000883023F44003E16A0B43C2F88830E36A15
:10315000B3F5800F4BD0236813F4805F0CD02B4A5B
:10316000D2F8883023F04073216B0B43C2F88830CB
:10317000236BB3F1807F3FD0236813F4005F0CD042
:10318000224AD2F8883023F04063616B0B43C2F8C7
:103190008830636BB3F1006F33D0236813F4804F32
:1031A0000CD01A4AD2F8883023F04063A16B0B434D
:1031B000C2F88830A36BB3F1006F2BD0236813F4EF
:1031C000004F0CD0114AD2F8883023F04053E16B05
:1031D0000B43C2F88830E36BB3F1805F1FD0284601
:1031E00003B0F0BDD36843F48013D360A2E7D36883
:1031F00043F48013D360AEE7D36843F48013D36005
:10320000BAE7D36843F48013D360C6E700100240E6
:1032100000700040D36843F48013D360CEE7D368D6
:1032200043F48033D360DAE730B4036A23F0010358
:103230000362036A4568826922F4803222F07302D5
:103240000C68224323F002038C6823431D4CA042E8
:103250000FD004F50064A0420BD004F54064A042F6
:1032600007D004F58064A04203D004F58064A04236
:1032700005D123F00803CC68234323F00403114C49
:10328000A0420FD004F50064A0420BD004F54064C6
:10329000A04207D004F58064A04203D004F5806406
:1032A000A04207D125F4407C4C6944EA0C0C8D699E
:1032B00045EA0C05456082614A684263036230BC9E
:1032C000704700BF002C014030B4036A23F48073C0
:1032D0000362036A4468C26922F4803222F07302F6
:1032E0000D682A4323F400738D6843EA0523184DC3
:1032F000A84203D005F50065A84206D123F4006377
:10330000CD6843EA052323F48063114DA8420FD012
:1033100005F50065A8420BD005F54065A84207D029
:1033200005F58065A84203D005F58065A84207D160
:1033300024F4405C4C694CEA041C8C694CEA04148B
:103340004460C2614A68C263036230BC704700BF18
:10335000002C014030B4036A23F480530362036AF3
:103360004468C26922F0807222F4E6420D6842EAA3
:10337000052223F400538D6843EA0533174DA84214
:1033800003D005F50065A84206D123F40043CD68BB
:1033900043EA053323F48043104DA8420FD005F5CE
:1033A0000065A8420BD005F54065A84207D005F599
:1033B0008065A84203D005F58065A84207D124F4B2
:1033C000404C4C694CEA841C8C694CEA841444607F
:1033D000C2614A680264036230BC7047002C01403D
:1033E00030B4036A23F480330362036A4468026DD5
:1033F00022F4803222F070020D682A4323F4003355
:103400008D6843EA05430F4DA8420FD005F50065CE
:10341000A8420BD005F54065A84207D005F58065A8
:10342000A84203D005F58065A84204D124F4803475
:103430004D6944EA0524446002654A688264036277
:1034400030BC7047002C014030B4036A23F4801371
:103450000362036A4468026D22F0807222F4E04243
:103460000D6842EA052223F400138D6843EA0553F0
:103470000F4DA8420FD005F50065A8420BD005F509
:103480004065A84207D005F58065A84203D005F540
:103490008065A84204D124F480244D6944EA85243F
:1034A000446002654A68C264036230BC704700BF72
:1034B000002C014010B4036A046A24F00104046281
:1034C000846924F0F00C4CEA021223F00A030B4347
:1034D000826103625DF8044B704710B4046A24F003
:1034E000100404628469036A24F4704C4CEA0232CA
:1034F00023F0A00343EA0113826103625DF8044BE9
:103500007047836823F4401323F070030B4343F0A8
:10351000070383607047000090F83D30DBB2012B59
:1035200032D1022380F83D300268D36843F00103B2
:10353000D3600368174A934218D0B3F1804F15D077
:10354000A2F59432934211D002F5806293420DD0DD
:1035500002F59632934209D002F54062934205D0BB
:103560001A6842F001021A600020704799680A4AFE
:103570000A40062A0AD0B2F5803F09D01A6842F004
:1035800001021A6000207047012070470020704738
:1035900000207047002C0140070001007047704771
:1035A00070477047704710B5044603681A6912F0F7
:1035B000020F12D0DA6812F0020F0ED06FF0020282
:1035C0001A610123037703689B6913F0030F00F06E
:1035D0009F80FFF7E5FF0023237723681A6912F025
:1035E000040F13D0DA6812F0040F0FD06FF004024A
:1035F0001A610223237723689B6913F4407F00F04C
:103600008D802046FFF7CCFF0023237723681A69BB
:1036100012F0080F12D0DA6812F0080F0ED06FF017
:1036200008021A61042323772368DB6913F0030F70
:103630007BD02046FFF7B4FF0023237723681A6965
:1036400012F0100F12D0DA6812F0100F0ED06FF0D7
:1036500010021A61082323772368DB6913F4407F83
:103660006AD02046FFF79CFF0023237723681A695E
:1036700012F0010F03D0DA6812F0010F63D1236852
:103680001A6912F0800F03D0DA6812F0800F61D14E
:1036900023681A6912F4807F03D0DA6812F0800F71
:1036A0005FD123681A6912F0400F03D0DA6812F074
:1036B000400F5DD123681A6912F0200F03D0DA6839
:1036C00012F0200F5BD123681A6912F4801F03D017
:1036D000DA6812F4801F59D123681A6912F4001FA6
:1036E00003D0DA6812F4001F57D123681A6912F464
:1036F000800F03D0DA6812F4800F55D123681A695D
:1037000012F4000F03D0DA6812F4000F53D110BD89
:10371000FFF745FF2046FFF744FF5CE72046FFF731
:103720003EFF2046FFF73DFF6EE72046FFF737FFDD
:103730002046FFF736FF7FE72046FFF730FF2046A1
:10374000FFF72FFF90E76FF001021A612046FDF7A7
:1037500037FE94E76FF080021A61204600F023FCE8
:1037600096E76FF480721A61204600F01DFC98E71E
:103770006FF040021A612046FFF714FF9AE76FF0DE
:1037800020021A61204600F00DFC9CE76FF48012C5
:103790001A61204600F009FC9EE76FF400121A61DE
:1037A000204600F003FCA0E76FF480021A61204677
:1037B00000F0FDFBA2E76FF400021A61204600F062
:1037C000F7FBA4E703682C4A90420ED0B0F1804F7B
:1037D0000BD0A2F59432904207D002F5806290425D
:1037E00003D002F59632904203D123F070034A6869
:1037F0001343214A90421AD0B0F1804F17D0A2F55E
:103800009432904213D002F5806290420FD002F5BC
:10381000963290420BD002F54062904207D002F5FA
:103820008062904203D002F58062904203D123F47B
:103830004073CA68134323F080034A69134303604B
:103840008B68C3620B6883620B4B98420FD003F501
:10385000006398420BD003F54063984207D003F50C
:103860008063984203D003F58063984201D10B69CD
:103870000363012343617047002C014060B310B51E
:10388000044690F83D3013B3022384F83D302146BE
:1038900051F8040BFFF796FF012384F8483084F8B1
:1038A0003E3084F83F3084F8403084F8413084F86A
:1038B000423084F8433084F8443084F8453084F84A
:1038C000463084F8473084F83D30002010BD80F841
:1038D0003C30FEF7B1F8D7E70120704760B310B570
:1038E000044690F83D3013B3022384F83D3021465E
:1038F00051F8040BFFF766FF012384F8483084F881
:103900003E3084F83F3084F8403084F8413084F809
:10391000423084F8433084F8443084F8453084F8E9
:10392000463084F8473084F83D30002010BD80F8E0
:103930003C30FFF733FED7E701207047002856D010
:10394000F8B50D46044690F83D30002B4AD00223CE
:1039500084F83D302268936823F4A03323F00703F2
:103960009360214651F8040BFFF72CFF21688A6809
:103970008B690E6A2868104323F4407C2CF0030CFA
:10398000AA68AB6942EA032343EA0C0323F47C43AD
:1039900023F0FC03EA69EF6847EA022C4CEA030CC7
:1039A0002A6A13032A6943EA021343EA0C0326F046
:1039B000AA066A686D6942EA051232438860216886
:1039C0008B6123681A62012384F8483084F83E3002
:1039D00084F83F3084F8443084F8453084F83D3032
:1039E0000020F8BD80F83C30FDF7ECFFAFE7012088
:1039F0007047000030B4036A23F010030362036AC7
:103A00004468826922F0807222F4E6420D6842EA3C
:103A1000052223F020038D6843EA0513174DA842C1
:103A200003D005F50065A84206D123F08003CD68D8
:103A300043EA051323F04003104DA8420FD005F5CB
:103A40000065A8420BD005F54065A84207D005F5F2
:103A50008065A84203D005F58065A84207D124F40B
:103A6000406C4C694CEA840C8C694CEA84044460D8
:103A700082614A688263036230BC7047002C014057
:103A800038B590F83C30012B00F08C8004460D4690
:103A9000012380F83C30142A1ED8DFE802F00B1D09
:103AA0001D1D211D1D1D351D1D1D481D1D1D5C1DC0
:103AB0001D1D6F000068FFF7B7FB2268936943F094
:103AC000080393612268936923F0040393612268D9
:103AD000936929690B439361002084F83C0038BD49
:103AE0000068FFF787FF2268936943F400639361DE
:103AF0002268936923F4806393612268936929693A
:103B000043EA01239361E7E70068FFF7DDFB2268E2
:103B1000D36943F00803D3612268D36923F0040317
:103B2000D3612268D36929690B43D361D4E7006864
:103B3000FFF710FC2268D36943F40063D361226865
:103B4000D36923F48063D3612268D369296943EA86
:103B50000123D361C0E70068FFF742FC2268136DC0
:103B600043F0080313652268136D23F00403136503
:103B70002268136D29690B431365ADE70068FFF7F1
:103B800063FC2268136D43F4006313652268136DB0
:103B900023F4806313652268136D296943EA0123C6
:103BA000136599E702209AE710B4846824F47F4CE7
:103BB00042EA03220A4342EA0C0282605DF8044BA7
:103BC0007047000090F83C30012B77D010B50446C8
:103BD000012380F83C30022380F83D300268906871
:103BE000374B034093600B68602B53D00ED9B3F56D
:103BF000005F43D02DD9334A934225D037D9324A7A
:103C0000934221D0303293421ED013E0402B4BD050
:103C10000BD9502B0ED1CA6849682068FFF74AFCBF
:103C200050212068FFF76DFC04E0202B0CD008D950
:103C3000302B09D0012384F83D30002084F83C006B
:103C400010BD0BB1102BF5D119462068FFF759FCB8
:103C5000F0E7702BEED1CB684A6889682068FFF7DF
:103C6000A3FF2268936843F077039360E2E7B3F120
:103C7000101FE9D0103A9342E6D0DBE7CB684A68E0
:103C800089682068FFF790FF2268936843F48043B7
:103C90009360CFE7CA6849682068FFF71EFC60217F
:103CA0002068FFF72EFCC5E7CA6849682068FFF75F
:103CB00001FC40212068FFF724FCBBE7022070478D
:103CC0008800CEFF300010004000100001F01F01FE
:103CD000012303FA01FC036A23EA0C030362036A6B
:103CE00002FA01F10B4303627047000010B504466D
:103CF0000846002947D194F83E30DBB2013B18BF9B
:103D00000123002B40F09480002867D1022384F81F
:103D10003E30012201462068FFF7D8FF2368474A5A
:103D200093420FD002F5006293420BD002F540623D
:103D3000934207D002F58062934203D002F580627D
:103D4000934203D15A6C42F400425A6423683B4ABE
:103D500093425FD0B3F1804F5CD0A2F5943293428E
:103D600058D002F58062934254D002F596329342C5
:103D700050D002F5406293424CD01A6842F00102E2
:103D80001A60002055E004290CD0082911D00C2914
:103D900016D010291BD094F84330DBB2013B18BF7A
:103DA0000123AEE794F83F30DBB2013B18BF01239B
:103DB000A7E794F84030DBB2013B18BF0123A0E72E
:103DC00094F84130DBB2013B18BF012399E794F826
:103DD0004230DBB2013B18BF012392E7042809D02F
:103DE00008280BD00C280DD010280FD0022384F8FF
:103DF00043308EE7022384F83F308AE7022384F8B9
:103E0000403086E7022384F8413082E7022384F8B9
:103E100042307EE799680A4A0A40062A0AD0B2F57B
:103E2000803F09D01A6842F001021A60002000E0C9
:103E3000012010BD0020FCE70020FAE7002C014023
:103E40000700010038B5044690F83E00C0B294F86F
:103E50003F3094F84420D2B294F845C00D46B1B931
:103E6000012849D1012A48D1022384F83E3084F840
:103E700044307DB3042D39D0012200212068FFF7A2
:103E800025FF012204212068FFF720FF27E0DBB295
:103E90005FFA8CFC042912D0012833D1012B2CD1DC
:103EA000012A31D1BCF1010F30D1022384F83E3018
:103EB00084F83F3084F8443084F84530D9E7012B4A
:103EC0001CD1BCF1010F1BD1022384F83F3084F8D0
:103ED0004530CEE7012200212068FFF7F7FE226877
:103EE000136843F001031360002006E0012204215F
:103EF0002068FFF7EBFEF2E7012038BD0120FCE768
:103F00001846FAE70120F8E71846F6E71046F4E706
:103F100090F83C30012B40D030B4012380F83C3085
:103F2000022380F83D300268536894681C4DAA4211
:103F300003D005F50065AA4203D123F470034D6850
:103F40002B4323F0007323F070030D682B43536061
:103F50000368134A934212D0B3F1804F0FD0A2F5F9
:103F6000943293420BD002F58062934207D002F55F
:103F70009632934203D002F54062934204D124F07A
:103F800080048A6814439C60012380F83D3000233C
:103F900080F83C30184630BC70470220704700BFA4
:103FA000002C01407047704770477047704770475A
:103FB00070470268136823F4907313600268936873
:103FC00023F0805323F001039360C36E012B06D0CE
:103FD0002023C0F888300023C36603677047026857
:103FE000136823F010031360F2E7704708B5016807
:103FF0000A6822F040020A602022C0F884200022D1
:104000004267FFF7F2FF08BD704708B5806A0023DA
:10401000A0F85E30A0F85630FFF7F6FF08BD7047F5
:1040200070B504460168CB6908688D6840F60F02D8
:104030001A4008D113F0200F05D010F0200F34D112
:1040400015F0805F31D12AB1A84A2A4033D1A84E59
:10405000304230D1E26E012A00F0BB8013F4801FA1
:1040600003D015F4800F40F0278113F0800F07D0A4
:1040700010F0800F40F0278115F4000F40F02381ED
:1040800013F0400F03D010F0400F40F0238113F4E1
:10409000000F03D010F0804F40F0208113F0807F9C
:1040A00002D00028C0F21E8170BD236F002BFBD010
:1040B00020469847F8E713F0010F09D010F4807FED
:1040C00006D001260E62D4F88C103143C4F88C104F
:1040D00013F0020F0BD015F0010F08D02168022653
:1040E0000E62D4F88C1041F00401C4F88C1013F067
:1040F000040F0BD015F0010F08D0216804260E62C2
:10410000D4F88C1041F00201C4F88C1013F0080FA1
:104110000BD010F0200F00D13AB1226808211162B3
:10412000D4F88C200A43C4F88C2013F4006F0CD010
:1041300010F0806F09D022684FF400611162D4F84A
:104140008C2042F02002C4F88C20D4F88C20002A65
:10415000AAD013F0200F09D010F0200F02D115F0D3
:10416000805F03D0236F0BB120469847D4F88C2092
:1041700023689B6813F0400F02D112F0280F21D062
:104180002046FFF716FF23689A6812F0400F15D0FB
:104190009A6822F040029A60E36F5BB1554A9A63D5
:1041A000E06FFDF799FE00283FF47EAFE06F836B70
:1041B000984779E72046FFF727FF75E72046FFF786
:1041C00023FF71E72046FFF71FFF0023C4F88C3060
:1041D0006AE713F0100F3FF441AF10F0100F3FF4F7
:1041E0003DAF10230B622268936813F0400F39D063
:1041F000E16F0B685B689BB2002B3FF455AFB4F8DE
:104200005C0098427FF650AFA4F85E300B681B68E4
:1042100013F0200F0AD0B4F85C10B4F85E309BB2F3
:10422000C91A89B22046FFF7FAFE3DE7136823F466
:10423000807313602268936823F0010393602268FF
:10424000936823F0400393602023C4F88830002350
:10425000E3662268136823F010031360E06FFDF734
:1042600005FED8E7B4F85C10B4F85E309BB2C91A0A
:1042700089B2B4F85E309BB2002B3FF415AF002931
:104280003FF412AF136823F49073136022689368AD
:1042900023F0805323F0010393602023C4F8883077
:1042A0000023E36623672268136823F0100313607A
:1042B0002046FFF7B4FEF7E64FF480130B6220466A
:1042C00000F002FEF0E6636F002B3FF4EDAE2046F7
:1042D0009847E9E62046FFF789FEE5E6204600F02C
:1042E000F5FDE1E6204600F0F0FDDDE601000010FE
:1042F000200100040B40000810B50446B0F86030FF
:10430000D0F88820222A05D00268936943F0080378
:10431000936110BD0268516ADBB2826D0B4013706D
:10432000836D01338365B0F85E309BB2013B9BB275
:10433000A0F85E30B0F85E309BB2002BE9D1026885
:10434000136823F4907313600268936823F00103E9
:1043500093602023C0F8883000230367C36E012BCD
:1043600004D0FCF7F9FF0023E366D2E70268136884
:1043700023F010031360B0F85C10FFF750FEF2E773
:1043800010B50446B0F86020D0F88830222B05D054
:104390000268936943F00803936110BD03685B6A88
:1043A000816D13400B80836D02338365B0F85E30FE
:1043B0009BB2013B9BB2A0F85E30B0F85E309BB27E
:1043C000002BEAD10268136823F49073136002682B
:1043D000936823F0010393602023C0F88830002302
:1043E0000367C36E012B04D0FCF7B6FF0023E3661E
:1043F000D3E70268136823F010031360B0F85C1071
:10440000FFF70DFEF2E700002DE9F843B0F8605029
:104410000368D3F81C90D3F800809F68D0F88820F8
:10442000222A05D09A6942F008029A61BDE8F88311
:104430000446B0F8686020E0D4F88C30002B63D1DB
:10444000B4F85E309BB2C3B92268136823F480735A
:1044500013602268936823F0805323F00103936074
:104460002023C4F8883000232367E36E012B52D049
:104470002046FCF771FF0023E366002E56D019F0AA
:10448000200F53D02368596AEBB2A26D0B40137012
:10449000A36D0133A365B4F85E309BB2013B9BB2C0
:1044A000A4F85E302368D3F81C9019F0070FC7D02A
:1044B00019F0010F09D018F4807F06D001221A628A
:1044C000D4F88C301343C4F88C3019F0020F0BD0A1
:1044D00017F0010F08D0236802221A62D4F88C303A
:1044E00043F00403C4F88C3019F0040FA4D017F083
:1044F000010FA1D0236804221A62D4F88C3043F053
:104500000203C4F88C3097E72046FFF77DFD0023B7
:10451000C4F88C3094E72268136823F0100313600A
:10452000B4F85C102046FFF77AFDA4E7B4F85E30DB
:104530009BB2002B3FF47AAFB4F868209A427FF622
:1045400075AF2268936823F080539360034B236711
:104550002268136843F02003136067E7F9420008FC
:104560002DE9F843B0F860500368D3F81C90D3F8F5
:1045700000809F68D0F88820222A05D09A6942F0EE
:1045800008029A61BDE8F8830446B0F8686020E04C
:10459000D4F88C30002B62D1B4F85E309BB2C3B932
:1045A0002268136823F4807313602268936823F0F1
:1045B000805323F0010393602023C4F88830002344
:1045C0002367E36E012B51D02046FCF7C5FE002384
:1045D000E366002E55D019F0200F52D023685B6A95
:1045E000A26D2B401380A36D0233A365B4F85E3037
:1045F0009BB2013B9BB2A4F85E302368D3F81C90B9
:1046000019F0070FC8D019F0010F09D018F4807FF6
:1046100006D001221A62D4F88C301343C4F88C30CF
:1046200019F0020F0BD017F0010F08D023680222F7
:104630001A62D4F88C3043F00403C4F88C3019F0BB
:10464000040FA5D017F0010FA2D0236804221A622C
:10465000D4F88C3043F00203C4F88C3098E720463D
:10466000FFF7D2FC0023C4F88C3095E7226813686A
:1046700023F010031360B4F85C102046FFF7CFFC62
:10468000A5E7B4F85E309BB2002B3FF47BAFB4F8E3
:1046900068209A427FF676AF2268936823F08053B1
:1046A0009360044B23672268136843F02003136070
:1046B00068E700BF8143000870B50446016883685D
:1046C0000269134342691343C269134308688B4A62
:1046D000024013430B602268536823F44053E1689F
:1046E0000B435360A1692268854B9A4201D0236A2B
:1046F0001943936823F06E4323F430630B439360B4
:104700002268D36A23F00F03616A0B43D3622368E4
:104710007C4A934223D07C4A934234D07B4A9342D2
:104720004AD07B4A934259D0754A934268D01022AE
:1047300073498B4200F09580E069B0F5004F00F0BE
:10474000D280082A00F24F81DFE812F01201340112
:1047500010014D0137014D014D014D013A0102F5A6
:104760005842D2F8882002F00302032A09D8DFE871
:1047700002F002045C060122DAE70422D8E70822EC
:10478000D6E71022D4E702F5E632D2F8882002F00C
:104790000C020C2A0ED8DFE802F0070D0D0D090DF2
:1047A0000D0D4A0D0D0D0B000022C1E70422BFE7DD
:1047B0000822BDE71022BBE702F5E432D2F88820D8
:1047C00002F03002202A34D004D8A2B3102A34D107
:1047D0000422ADE7302A32D10822A9E702F5E232FD
:1047E000D2F8882002F0C002802A2AD004D852B31E
:1047F000402A2AD104229BE7C02A28D1082297E721
:1048000002F5C832D2F8882002F44062B2F5006F97
:104810001FD005D8FAB1B2F5806F1ED1042287E708
:10482000B2F5406F1BD1082282E7022280E7022204
:104830007EE702227CE700227AE7102278E7102246
:1048400076E7022274E7002272E7102270E7102256
:104850006EE702226CE700226AE7102268E7102266
:1048600066E7082A00F2AF80DFE802F008AD3BAD52
:1048700038ADADAD05004FF4004004E0FEF720FB7D
:10488000002800F0A280626A224B33F81220B0FBAD
:10489000F2F3656805EB4501994200F29880B3EBAD
:1048A000053F00F29680002633463146FBF7D4FEE2
:1048B000090241EA106100026B08C0182A4633461B
:1048C00041F10001FBF7C8FEA0F54072124B9A427D
:1048D00000F281802368D860304662E0FEF7AAF9D2
:1048E000CEE70E48CFE7082A77D8DFE802F019397B
:1048F00005763C7676761D00084815E0F369FFCF13
:104900000080004000380140004400400048004062
:10491000004C004010B40008FFFC0F000024F4001D
:10492000FEF7CEFA00285AD0626A324B33F81230C2
:10493000B0FBF3F06268530803EB4000B0FBF2F009
:1049400080B2A0F110024FF6EF739A4249D820F0DE
:104950000F03C0F3420018432368D860002020E012
:10496000FEF7C0FADEE7FEF765F9DBE7224803E071
:10497000FEF7A6FA002838D0626A1E4B33F81230D0
:10498000B0FBF3F0636800EB5300B0FBF3F080B2D0
:10499000A0F110024FF6EF739A4228D82368D8602E
:1049A00000200123A4F86A30A4F8683000232367AC
:1049B000636770BDFEF796FADCE7FEF73BF9D9E7CF
:1049C0004FF40040D8E70120EBE70020E9E70120A1
:1049D000E7E70120E5E70120E3E70120E1E7002028
:1049E000DFE70120DDE70120DBE70020D9E7012038
:1049F000D7E700BF10B400080024F400836A13F066
:104A0000010F06D00268536823F40033C16A0B43D8
:104A10005360836A13F0020F06D00268536823F4D0
:104A20008033016B0B435360836A13F0040F06D08D
:104A30000268536823F48023416B0B435360836AFD
:104A400013F0080F06D00268536823F40043816B0B
:104A50000B435360836A13F0100F06D0026893680B
:104A600023F48053C16B0B439360836A13F0200FD0
:104A700006D00268936823F40053016C0B439360E3
:104A8000836A13F0400F0AD00268536823F480133E
:104A9000416C0B435360436CB3F5801F0BD0836AAA
:104AA00013F0800F06D00268536823F40023C16C12
:104AB0000B43536070470268536823F4C003816C52
:104AC0000B435360EBE72DE9F84305460F461646C6
:104AD0009946DDF820802C68E46937EA04030CBFAE
:104AE0004FF0010C4FF0000CB44541D1B8F1FF3F3D
:104AF000F1D0FDF749F9A0EB0900404524D8B8F101
:104B0000000F21D02B681A6812F0040FE3D0DA6985
:104B100012F4006FDFD04FF400621A622A68136843
:104B200023F4D07313602A68936823F00103936021
:104B30002023C5F88430C5F88830C5F88C300023B0
:104B400085F88030032014E02A68136823F4D073BA
:104B500013602A68936823F0010393602023C5F84B
:104B60008430C5F88830002385F88030032000E0C9
:104B70000020BDE8F8832DE9F04182B01E46D0F850
:104B80008430202B58D104460D469046002957D03A
:104B9000002A57D090F88030012B55D0012380F89F
:104BA00080300023C0F88C302123C0F88430FDF71A
:104BB000EBF80746A4F85480A4F85680A368B3F530
:104BC000805F05D04FF00008002384F8803014E0A7
:104BD000236913B14FF00008F6E7A8460025F3E774
:104BE00038F8023B2268C3F308039362B4F85620F6
:104BF00092B2013A92B2A4F85620B4F856309BB261
:104C000073B100963B46002280212046FFF75BFFF0
:104C1000E0B9002DE4D015F8012B23689A62E5E78E
:104C200000963B46002240212046FFF74CFF78B912
:104C30002023C4F8843000E0022002B0BDE8F081F7
:104C40000120FAE70120F8E70220F6E70320F4E765
:104C50000320F2E730B583B004460023C0F88C305F
:104C6000FDF792F805462268126812F0080F0FD17E
:104C700023681B6813F0040F18D12023C4F8843074
:104C8000C4F888300020E06684F8800003B030BDAE
:104C90006FF07E430093034600224FF4001120463C
:104CA000FFF711FF0028E3D00320EFE76FF07E430A
:104CB00000932B4600224FF480012046FFF703FFAC
:104CC0000028DAD00320E1E778B310B50446D0F825
:104CD00084300BB32423C4F884302268136823F093
:104CE000010313602046FFF7E7FC012813D0A36AF5
:104CF000BBB92268536823F49043536022689368D9
:104D000023F02A0393602268136843F001031360C1
:104D10002046FFF79FFF10BD80F88030FCF7E4FECF
:104D2000D8E72046FFF76AFEE3E70120704700005E
:104D30008165A0F85C20A0F85E20002303678368EB
:104D4000B3F5805F06D0A3B9036973B9FF23A0F858
:104D5000603014E0036923B940F2FF13A0F860301B
:104D60000DE0FF23A0F8603009E07F23A0F8603059
:104D700005E0B3F1805F21D00023A0F8603000236C
:104D8000C0F88C302223C0F8883001688B6843F06B
:104D900001038B60436EB3F1005F19D08368B3F5F4
:104DA000805F33D01C4B0367002380F8803002689B
:104DB000136843F4907313600020704703691BB9B4
:104DC0007F23A0F86030DAE73F23A0F86030D6E711
:104DD000B0F868309342E1D88368B3F5805F0FD0B4
:104DE0000E4B0367002380F880300268136843F499
:104DF000807313600268936843F080539360DBE72D
:104E00000369002BECD1064B0367EBE70369002B2A
:104E1000C8D1044B0367C7E7F942000809440008FA
:104E20006145000881430008D0F88830202B1AD152
:104E3000D9B1E2B190F88030012B1AD010B501231E
:104E400080F880300023C36603680B4CA34207D070
:104E50005C6814F4000F03D01C6844F080641C608C
:104E6000FFF766FF10BD0220704701207047012048
:104E700070470220704700BF00800040436E2BB98E
:104E80000123A0F86A30A0F86830704730B4036896
:104E90009A68C2F342629968490F094D6B5CDB0066
:104EA000084C615C93FBF1F3A0F86A30AB5CDB006B
:104EB000A25C93FBF2F3A0F8683030BC704700BFEF
:104EC00030B4000828B4000870477047704790F865
:104ED0008030012B18D0012380F880302423C0F8C3
:104EE000843003681A68196821F00101196022F002
:104EF00000520023436601680A602022C0F8842023
:104F000080F88030184670470220704738B590F816
:104F10008030012B1DD00446012380F880302423EB
:104F2000C0F8843003681D681A6822F001021A6014
:104F30000268936823F0604319439160FFF79EFF76
:104F400023681D602023C4F88430002084F880008A
:104F500038BD0220FCE738B590F88030012B1DD019
:104F60000446012380F880302423C0F8843003688D
:104F70001D681A6822F001021A600268936823F023
:104F8000606319439160FFF779FF23681D60202358
:104F9000C4F88430002084F8800038BD0220FCE78B
:104FA0000A22002100F000BA014B1868704700BFC8
:104FB0000C00002070B50D4E0D4D761BB61006D0BE
:104FC000002455F8043B01349847A642F9D1094E14
:104FD000094D761B06F000FAB61006D0002455F8ED
:104FE000043B01349847A642F9D170BD3CB8000893
:104FF0003CB8000844B800083CB80008830730B546
:1050000048D0541E002A3FD0CAB2034601E0013CFA
:105010003AD303F8012B9D07F9D1032C2DD9CDB23A
:1050200045EA05250F2C45EA054536D9A4F11002BD
:1050300022F00F0C03F1200EE6444FEA121C03F19C
:10504000100242E9045542E9025510327245F8D186
:105050000CF1010214F00C0F03EB021204F00F0C20
:1050600013D0ACF1040323F003030433134442F8D8
:10507000045B9342FBD10CF003042CB1CAB21C4474
:1050800003F8012B9C42FBD130BD64461346002C33
:10509000F4D1F9E703461446BFE71A46A446E0E711
:1050A0000FB400B5074983B004AB086853F8042B6C
:1050B0008168019300F090F903B05DF804EB04B04F
:1050C000704700BF0C00002000294FF480630CBF24
:1050D0000222002200F000B82DE9F043694CD4F818
:1050E000008083B004460E4617461D46B8F1000FF7
:1050F00003D0D8F83830002B77D0022F05D0012FFD
:1051000000F2AC80002DC0F2A980636EDA0752D5A0
:105110002146404603F0AEF8216B41B104F1400353
:10512000994202D0404603F0D1F900232363B4F939
:105130000CC000231CF0800FA361636064D12CF4C9
:105140004A6C2CF0030C022FA4F80CC06AD001ABFF
:105150006A462146404603F05FFBA3891843A081BD
:10516000002D2FD0002E2ED0D8F83830002B38D07C
:10517000009B2660AB42B4F90C301CBF43F40063C3
:10518000A381012F04BF43F00103A3819AB213F05E
:105190000803C4E904652CD0D1075DD56D42A56133
:1051A000656E002315F00105A36027D00025284671
:1051B00003B0BDE8F083A3899B05A9D4A06D03F0DB
:1051C000B7FAA5E7009D284603F056FB06460028DF
:1051D00047D0A38943F08003A381D8F83830002B4F
:1051E000C6D1404603F07AF8C2E7404603F076F8AD
:1051F00083E7A360656E15F00105D7D1930524D52B
:10520000284603B0BDE8F0832169404603F05EF90B
:10521000B4F90CC02CF44A6C2CF0030C022FA4F847
:105220000CC094D10025002204F14303A2600122A6
:10523000C4E904322360636E4CF0020CD807A4F872
:105240000CC0DDD41CF4007FDAD1A06D03F072FA3B
:10525000284603B0BDE8F083A560CBE74FF0FF35EB
:10526000CEE7DDF80090A94504D0484603F004FBE2
:10527000064620B9B4F90CC04FF0FF35D3E74D46D0
:10528000A7E700BF0C0000202DE9F04F81464548FC
:105290008E4675461EF801CB10F80C4014F0080439
:1052A000F7D1BCF12D0FE34654D0BCF12B0F08BF52
:1052B0009EF800B06FF0004808BF05F1020E1BB168
:1052C000102B4FD01F4604E0BBF1300F55D00A23FE
:1052D0001F460025B8FBF7F6284607FB168A07E0AD
:1052E000864215D329D007FB00C001251EF801BB5B
:1052F000ABF1300CBCF1090F06D9ABF1410CBCF19C
:10530000190F08D8ABF1370C63450DDD002DE7DA36
:105310004FF0FF35EAE7ABF1610CBCF1190F03D890
:10532000ABF1570C6345F1DC002D0BDB04B14042BF
:105330000AB195BB1160BDE8F08FE245D3DA4FF0BA
:10534000FF35D3E72223C9F800301AB30EF1FF313D
:105350004046EFE79EF800B04FF0004805F1020E1E
:105360000124ACE7BBF1300FACD19EF8000000F097
:10537000DF00582807D01F46ABE79EF8003003F047
:10538000DF03582B0BD110279EF801B03B460EF1DE
:10539000020E9EE74046BDE8F08F8046D6E7082320
:1053A0001F4696E7A1B40008012A09D0242A07D88D
:1053B00084460748134600680A466146FFF764BF03
:1053C00010B5FFF7F1FD16230360002010BD00BFEC
:1053D0000C000020000000002DE9F04F2DED0A8B9D
:1053E000CFB01C460AEE101A91460AEE900A054606
:1053F00003F096F90368139318460994FBF7A0FB92
:1054000012901DB1AB6B002B00F048821AEE102AEF
:10541000536EDB0740F14781B2F90C309AB2960423
:1054200009D41AEE101A43F400538B819AB24B6ED2
:1054300023F400534B66150740F1CC801AEE103A66
:105440001B69002B00F0C68002F01A030A2B00F043
:10545000D2804D469FED9C7B2B78002425AACDE978
:105460002344CDE91544CDE917448DED107B1AEEA8
:10547000909A0E942292904614940694002B00F079
:10548000B081AB4604E01BF8013F002B00F0CD805B
:10549000252BF8D1BBEB050640F0CB809BF8003004
:1054A000002B00F09E8100234FF0FF329BF801702B
:1054B0008DF86B3005930BF1010B04929A462B2467
:1054C00020210BF1010BA7F120035A2B00F20081E0
:1054D000DFE813F00A03FE00FE000503FE00FE00F5
:1054E000FE006A00FE00FE0076029E02FE008102BF
:1054F000A802FE00A3025B005B005B005B005B0098
:105500005B005B005B005B00FE00FE00FE00FE0037
:10551000FE00FE00FE008E01FE001602ED018E016F
:105520008E018E01FE00FE00FE00FE000003FE0064
:10553000FE004502FE00FE00FE002002FE00C20248
:10554000FE00FE009907FE00FE00FE00FE00FE00C9
:10555000FE00FE00FE008E01FE001602EF018E012D
:105560008E018E01E602EF01E801FE00F302FE006B
:1055700086024702D402E801FE0020027D00750782
:10558000FE00FE007907FE007D00A7F13003002237
:105590001BF8017B02EB820203EB4202A7F130030E
:1055A000092BF5D905928EE7484603F0B9F8436810
:1055B00017931846FBF7C4FA18900646484603F0BE
:1055C000AFF8836815932021002E40F0E9869BF800
:1055D000007076E71AEE101A1AEE900A1AEE105AB8
:1055E00001F002FD002841F02783AA8902F01A0386
:1055F0000A2B7FF42EAF1AEE101AB1F90E30002BE1
:10560000FFF627AF4B6ED90702D4920541F15A81BC
:105610001AEE101A1AEE900A23464A464FB0BDEC15
:105620000A8BBDE8F04F01F09FBCBBEB050600F014
:10563000D880249B33442493239B0133072BC8E950
:105640000056239305DC08F10808069B33440693B3
:1056500024E71AEE101A22AA484604F085F890B9F9
:105660000DF19408F1E71AEE101A22AA484604F048
:105670007BF8002800F0A680089B23B11AEE900A60
:10568000194602F023FF1AEE102A536ED80740F194
:10569000FA8093895A0601F1D88206984FB0BDEC82
:1056A0000A8BBDE8F08FB2F90C309F059AB23FF536
:1056B000B6AE1AEE105AA86D03F03AF8B5F90C30F0
:1056C0009AB2ACE6AFF300800000000000000000DA
:1056D000002F00F0868000238DF8D4708DF86B3099
:1056E0000122CDE90723039204930C930F930D93AA
:1056F00035AD1AF002020A9202D0039A02320392E6
:105700001AF084020B9205D1059A0399561A002EBD
:1057100000F36883249C8BB1239B0DF16B02013352
:105720000134C8F80020072B4FF001022494239382
:10573000C8F8042000F39F8308F108080A9B83B18E
:10574000239B1BAA01330234C8F80020072B4FF01B
:10575000020224942393C8F8042000F3998308F1EB
:1057600008080B9B802B00F06A82049B079A9E1A04
:10577000002E00F3AB821AF4807F40F00682079B74
:10578000C8F804301C44239BC8F800500133072B91
:105790002494239300F3198308F108081AF0040FE6
:1057A00005D0059B039A9D1A002D00F38583DDE942
:1057B000052303998A42ACBF9B185B180693002C03
:1057C0007FF451AF00232393089B1BB108994846EF
:1057D00002F07CFE0DF194085D462B78002B7FF4DF
:1057E00050AE249B002B41F01B82002323934AE7F9
:1057F000099B073323F00703B3EC027B8DED107B8D
:10580000DDE91012099322F000430BEE101A0BEEA3
:10581000903A4FF0FF32B0EE4B9AF0EE6B9AB74BE6
:1058200051EC190BFBF794FC002840F0E884B34BD3
:1058300051EC190B4FF0FF32FBF76CFC002840F0E5
:10584000DE84DDE9100100220023FBF759FC00286B
:1058500040F067879DF86B30A94DAA4A2AF0800A6C
:105860000321472FC8BF15460022089203910791D4
:1058700004920C920F920D92002B3FF43AAF039AD0
:105880000132039235E7938999053FF503AF1AEE8C
:10589000104A906D02F04EFFA389FBE6284602F005
:1058A0001DFDB3E59BF800704AF0200A09E64AF0B6
:1058B000100A1AF0200F099B00F04084073323F0F0
:1058C00007031A465B6852F8084B09921E46002BE4
:1058D000C0F24384049B013300F0BC822AF08003B1
:1058E000039354EA060340F0B782049B002B40F078
:1058F000B882DDF80CA00023049307934EAD1FE19E
:10590000099A002352F8041B8DF86B308DF8D410DF
:105910000992E5E6099C54F8045B00268DF86B605B
:10592000002D00F08F85049B5A1C00F051861A460A
:1059300031462846FBF714F80890002801F02F8123
:10594000089B0496591B079121EAE1719DF86B3081
:105950000994039108960C960F960D968CE74AF0E1
:10596000100A1AF0200600F0C983099B073323F0C0
:1059700007035E6853F8084B09932AF48063039386
:10598000002300228DF86B20049A551C00F0C08083
:10599000039921F0800A54EA060140F0B780002AFA
:1059A00040F00786002BA6D1039B13F00103079359
:1059B00000F0148430238DF837310DF23715BFE035
:1059C000099B53F8042B0592002A80F2D583059A8F
:1059D0000993524205929BF800704AF0040A70E560
:1059E0001AF0200F40F0D1841AF0100F40F0E78534
:1059F0001AF0400F40F0A9861AF4007F00F0DF850E
:105A0000099B069953F8042B099311705D46E4E64F
:105A10009BF800708DF86B4053E59BF800704AF0DE
:105A2000800A4EE55A4612F8017B2A2F01F06F8258
:105A3000A7F13003092B934698BF002201F2EC80B6
:105A40001BF8017B02EB820203EB4202A7F1300359
:105A5000092BF5D9049236E54AF010030393039B12
:105A600013F0200600F05983099B073323F0070346
:105A70005E6853F8084B0993012382E7099B53F8AA
:105A8000044B099330234AF0020278278DF86C30DA
:105A90001D4B149303928DF86D700026022370E75E
:105AA0009BF80070682F03BF9BF801704AF4007ADE
:105AB0000BF1010B4AF0400A03E59BF800706C2FD4
:105AC00003BF9BF801704AF0200A0BF1010B4AF06A
:105AD000100AF6E49BF800704AF0080AF1E49BF81B
:105AE00000704AF0010AECE49DF86B30002B7FF463
:105AF0006EAD9BF800708DF86B10E2E4FFFFEF7F56
